{
  "contractName": "TweetAccount",
  "abi": [
    {
      "constant": true,
      "inputs": [],
      "name": "getOwnerAddress",
      "outputs": [
        {
          "name": "adminAddress",
          "type": "address"
        }
      ],
      "payable": false,
      "stateMutability": "view",
      "type": "function"
    },
    {
      "constant": false,
      "inputs": [],
      "name": "adminDeleteAccount",
      "outputs": [],
      "payable": false,
      "stateMutability": "nonpayable",
      "type": "function"
    },
    {
      "constant": false,
      "inputs": [
        {
          "name": "receiver",
          "type": "address"
        }
      ],
      "name": "adminRetrieveDonations",
      "outputs": [],
      "payable": false,
      "stateMutability": "nonpayable",
      "type": "function"
    },
    {
      "constant": true,
      "inputs": [],
      "name": "getLatestTweet",
      "outputs": [
        {
          "name": "tweetString",
          "type": "string"
        },
        {
          "name": "timestamp",
          "type": "uint256"
        },
        {
          "name": "numberOfTweets",
          "type": "uint256"
        }
      ],
      "payable": false,
      "stateMutability": "view",
      "type": "function"
    },
    {
      "constant": true,
      "inputs": [],
      "name": "isAdmin",
      "outputs": [
        {
          "name": "isAdmin",
          "type": "bool"
        }
      ],
      "payable": false,
      "stateMutability": "view",
      "type": "function"
    },
    {
      "constant": true,
      "inputs": [
        {
          "name": "tweetId",
          "type": "uint256"
        }
      ],
      "name": "getTweet",
      "outputs": [
        {
          "name": "tweetString",
          "type": "string"
        },
        {
          "name": "timestamp",
          "type": "uint256"
        }
      ],
      "payable": false,
      "stateMutability": "view",
      "type": "function"
    },
    {
      "constant": true,
      "inputs": [],
      "name": "getNumberOfTweets",
      "outputs": [
        {
          "name": "numberOfTweets",
          "type": "uint256"
        }
      ],
      "payable": false,
      "stateMutability": "view",
      "type": "function"
    },
    {
      "constant": false,
      "inputs": [
        {
          "name": "tweetString",
          "type": "string"
        }
      ],
      "name": "tweet",
      "outputs": [
        {
          "name": "result",
          "type": "int256"
        }
      ],
      "payable": false,
      "stateMutability": "nonpayable",
      "type": "function"
    },
    {
      "inputs": [],
      "payable": false,
      "stateMutability": "nonpayable",
      "type": "constructor"
    }
  ],
  "bytecode": "0x6060604052341561000f57600080fd5b600060018190555033600260006101000a81548173ffffffffffffffffffffffffffffffffffffffff021916908373ffffffffffffffffffffffffffffffffffffffff1602179055506107e0806100676000396000f30060606040526004361061008e576000357c0100000000000000000000000000000000000000000000000000000000900463ffffffff1680630c4f65bd146100935780633e450fff146100e85780635c3e426c146100fd578063ae978f0814610136578063b6db75a0146101d2578063c3ad5ecb146101ff578063ca7dc5b1146102a2578063fb46d4c5146102cb575b600080fd5b341561009e57600080fd5b6100a661033c565b604051808273ffffffffffffffffffffffffffffffffffffffff1673ffffffffffffffffffffffffffffffffffffffff16815260200191505060405180910390f35b34156100f357600080fd5b6100fb610366565b005b341561010857600080fd5b610134600480803573ffffffffffffffffffffffffffffffffffffffff169060200190919050506103b0565b005b341561014157600080fd5b61014961040e565b6040518080602001848152602001838152602001828103825285818151815260200191508051906020019080838360005b8381101561019557808201518184015260208101905061017a565b50505050905090810190601f1680156101c25780820380516001836020036101000a031916815260200191505b5094505050505060405180910390f35b34156101dd57600080fd5b6101e56104f3565b604051808215151515815260200191505060405180910390f35b341561020a57600080fd5b610220600480803590602001909190505061054b565b6040518080602001838152602001828103825284818151815260200191508051906020019080838360005b8381101561026657808201518184015260208101905061024b565b50505050905090810190601f1680156102935780820380516001836020036101000a031916815260200191505b50935050505060405180910390f35b34156102ad57600080fd5b6102b5610622565b6040518082815260200191505060405180910390f35b34156102d657600080fd5b610326600480803590602001908201803590602001908080601f0160208091040260200160405190810160405280939291908181526020018383808284378201915050505050509190505061062c565b6040518082815260200191505060405180910390f35b6000600260009054906101000a900473ffffffffffffffffffffffffffffffffffffffff16905090565b61036e6104f3565b156103ae57600260009054906101000a900473ffffffffffffffffffffffffffffffffffffffff1673ffffffffffffffffffffffffffffffffffffffff16ff5b565b6103b86104f3565b1561040b578073ffffffffffffffffffffffffffffffffffffffff166108fc3073ffffffffffffffffffffffffffffffffffffffff16319081150290604051600060405180830381858888f19350505050505b50565b6104166106fb565b600080600080600180540381526020019081526020016000206001018054600181600116156101000203166002900480601f0160208091040260200160405190810160405280929190818152602001828054600181600116156101000203166002900480156104c65780601f1061049b576101008083540402835291602001916104c6565b820191906000526020600020905b8154815290600101906020018083116104a957829003601f168201915b50505050509250600080600180540381526020019081526020016000206000015491506001549050909192565b6000600260009054906101000a900473ffffffffffffffffffffffffffffffffffffffff1673ffffffffffffffffffffffffffffffffffffffff163373ffffffffffffffffffffffffffffffffffffffff1614905090565b6105536106fb565b60008060008481526020019081526020016000206001018054600181600116156101000203166002900480601f0160208091040260200160405190810160405280929190818152602001828054600181600116156101000203166002900480156105fe5780601f106105d3576101008083540402835291602001916105fe565b820191906000526020600020905b8154815290600101906020018083116105e157829003601f168201915b50505050509150600080848152602001908152602001600020600001549050915091565b6000600154905090565b60006106366104f3565b1515610664577fffffffffffffffffffffffffffffffffffffffffffffffffffffffffffffffff90506106f6565b60a082511115610696577ffffffffffffffffffffffffffffffffffffffffffffffffffffffffffffffffe90506106f5565b4260008060015481526020019081526020016000206000018190555081600080600154815260200190815260200160002060010190805190602001906106dd92919061070f565b50600160008154809291906001019190505550600090505b5b919050565b602060405190810160405280600081525090565b828054600181600116156101000203166002900490600052602060002090601f016020900481019282601f1061075057805160ff191683800117855561077e565b8280016001018555821561077e579182015b8281111561077d578251825591602001919060010190610762565b5b50905061078b919061078f565b5090565b6107b191905b808211156107ad576000816000905550600101610795565b5090565b905600a165627a7a72305820212ae88635a18ecdd12c092a25f10838857bcab3c275e26d02157e28c6855ad20029",
  "source": "pragma solidity ^0.4.2;\n/*\ndecentralized microblogging \nCopyright (C) 2015 Jahn Bertsch\n\nThis program is free software: you can redistribute it and/or modify\nit under the terms of the GNU General Public License as published by\nthe Free Software Foundation in version 3.\n\nThis program is distributed in the hope that it will be useful,\nbut WITHOUT ANY WARRANTY; without even the implied warranty of\nMERCHANTABILITY or FITNESS FOR A PARTICULAR PURPOSE.  See the\nGNU General Public License for more details.\n\nYou should have received a copy of the GNU General Public License\nalong with this program.  If not, see <http://www.gnu.org/licenses/>.\n*/\n\n// \"class\" TweetAccount\ncontract TweetAccount {\n\t\n\t// data structure of a single tweet\n\tstruct Tweet {\n\t\tuint timestamp;\n\t\tstring tweetString;\n\t}\n\t\n\t// \"array\" of all tweets of this account: maps the tweet id to the actual tweet\n\tmapping (uint => Tweet) _tweets;\n\t\n\t// total number of tweets in the above _tweets mapping\n\tuint _numberOfTweets;\n\t\n\t// \"owner\" of this account: only admin is allowed to tweet\n\taddress _adminAddress;\n\t\n\t// constructor\n\tfunction TweetAccount() {\n\t\t_numberOfTweets = 0;\n\t\t_adminAddress = msg.sender;\n\t}\n\t\n\t// returns true if caller of function (\"sender\") is admin\n\tfunction isAdmin() constant returns (bool isAdmin) {\n\t\treturn msg.sender == _adminAddress;\n\t}\n\t\n\t// create new tweet\n\tfunction tweet(string tweetString) returns (int result) {\n\t\tif (!isAdmin()) {\n\t\t\t// only owner is allowed to create tweets for this account\n\t\t\tresult = -1;\n\t\t} else if (bytes(tweetString).length > 160) {\n\t\t\t// tweet contains more than 160 bytes\n\t\t\tresult = -2;\n\t\t} else {\n\t\t\t_tweets[_numberOfTweets].timestamp = now;\n\t\t\t_tweets[_numberOfTweets].tweetString = tweetString;\n\t\t\t_numberOfTweets++;\n\t\t\tresult = 0; // success\n\t\t}\n\t}\n\t\n\tfunction getTweet(uint tweetId) constant returns (string tweetString, uint timestamp) {\n\t\t// returns two values\n\t\ttweetString = _tweets[tweetId].tweetString;\n\t\ttimestamp = _tweets[tweetId].timestamp;\n\t}\n\t\n\tfunction getLatestTweet() constant returns (string tweetString, uint timestamp, uint numberOfTweets) {\n\t\t// returns three values\n\t\ttweetString = _tweets[_numberOfTweets - 1].tweetString;\n\t\ttimestamp = _tweets[_numberOfTweets - 1].timestamp;\n\t\tnumberOfTweets = _numberOfTweets;\n\t}\n\t\n\tfunction getOwnerAddress() constant returns (address adminAddress) {\n\t\treturn _adminAddress;\n\t}\n\t\n\tfunction getNumberOfTweets() constant returns (uint numberOfTweets) {\n\t\treturn _numberOfTweets;\n\t}\n\n\t// other users can send donations to your account: use this function for donation withdrawal\n\tfunction adminRetrieveDonations(address receiver) {\n\t\tif (isAdmin()) {\n\t\t\treceiver.send(this.balance);\n\t\t}\n\t}\n\t\n\tfunction adminDeleteAccount() {\n\t\tif (isAdmin()) {\n\t\t\tsuicide(_adminAddress); // this is a predefined function, it deletes the contract and returns all funds to the owner's address\n\t\t}\n\t}\t\n}\n",
  "sourcePath": "/home/znr/ethereum/truffle_test/contracts/TweetAccount.sol",
  "compiler": {
    "name": "solc",
    "version": "0.4.18+commit.9cf6e910.Emscripten.clang"
  },
  "schemaVersion": "1.0.1",
  "updatedAt": "2017-12-20T11:53:55.962Z"
}