{
  "contractName": "TweetRegistry",
  "abi": [
    {
      "constant": false,
      "inputs": [
        {
          "name": "name",
          "type": "string"
        }
      ],
      "name": "adminUnregister",
      "outputs": [],
      "payable": false,
      "stateMutability": "nonpayable",
      "type": "function"
    },
    {
      "constant": false,
      "inputs": [
        {
          "name": "name",
          "type": "string"
        },
        {
          "name": "accountAddress",
          "type": "address"
        }
      ],
      "name": "register",
      "outputs": [
        {
          "name": "result",
          "type": "int256"
        }
      ],
      "payable": false,
      "stateMutability": "nonpayable",
      "type": "function"
    },
    {
      "constant": true,
      "inputs": [],
      "name": "getNumberOfAccounts",
      "outputs": [
        {
          "name": "numberOfAccounts",
          "type": "uint256"
        }
      ],
      "payable": false,
      "stateMutability": "view",
      "type": "function"
    },
    {
      "constant": false,
      "inputs": [],
      "name": "adminRetrieveDonations",
      "outputs": [],
      "payable": false,
      "stateMutability": "nonpayable",
      "type": "function"
    },
    {
      "constant": true,
      "inputs": [
        {
          "name": "name",
          "type": "string"
        }
      ],
      "name": "getAddressOfName",
      "outputs": [
        {
          "name": "addr",
          "type": "address"
        }
      ],
      "payable": false,
      "stateMutability": "view",
      "type": "function"
    },
    {
      "constant": false,
      "inputs": [],
      "name": "adminDeleteRegistry",
      "outputs": [],
      "payable": false,
      "stateMutability": "nonpayable",
      "type": "function"
    },
    {
      "constant": false,
      "inputs": [
        {
          "name": "accountAdmin",
          "type": "address"
        }
      ],
      "name": "adminSetAccountAdministrator",
      "outputs": [],
      "payable": false,
      "stateMutability": "nonpayable",
      "type": "function"
    },
    {
      "constant": false,
      "inputs": [
        {
          "name": "registrationDisabled",
          "type": "bool"
        }
      ],
      "name": "adminSetRegistrationDisabled",
      "outputs": [],
      "payable": false,
      "stateMutability": "nonpayable",
      "type": "function"
    },
    {
      "constant": true,
      "inputs": [
        {
          "name": "addr",
          "type": "address"
        }
      ],
      "name": "getNameOfAddress",
      "outputs": [
        {
          "name": "name",
          "type": "string"
        }
      ],
      "payable": false,
      "stateMutability": "view",
      "type": "function"
    },
    {
      "constant": false,
      "inputs": [],
      "name": "unregister",
      "outputs": [
        {
          "name": "unregisteredAccountName",
          "type": "string"
        }
      ],
      "payable": false,
      "stateMutability": "nonpayable",
      "type": "function"
    },
    {
      "constant": true,
      "inputs": [
        {
          "name": "id",
          "type": "uint256"
        }
      ],
      "name": "getAddressOfId",
      "outputs": [
        {
          "name": "addr",
          "type": "address"
        }
      ],
      "payable": false,
      "stateMutability": "view",
      "type": "function"
    },
    {
      "inputs": [],
      "payable": false,
      "stateMutability": "nonpayable",
      "type": "constructor"
    }
  ],
  "bytecode": "0x6060604052341561000f57600080fd5b33600460006101000a81548173ffffffffffffffffffffffffffffffffffffffff021916908373ffffffffffffffffffffffffffffffffffffffff16021790555033600560006101000a81548173ffffffffffffffffffffffffffffffffffffffff021916908373ffffffffffffffffffffffffffffffffffffffff16021790555060006003819055506000600560146101000a81548160ff021916908315150217905550611135806100c36000396000f3006060604052600436106100af576000357c0100000000000000000000000000000000000000000000000000000000900463ffffffff1680630cc04b55146100b45780631e59c52914610111578063309e36ef146101a1578063345e3416146101ca57806338ec6ba8146101df5780633af41dc21461027c57806349f0c90d146102915780639b6d86d6146102ca578063b2dad25d146102ef578063e79a198f146103a1578063ec43eeb61461042f575b600080fd5b34156100bf57600080fd5b61010f600480803590602001908201803590602001908080601f01602080910402602001604051908101604052809392919081815260200183838082843782019150505050505091905050610492565b005b341561011c57600080fd5b61018b600480803590602001908201803590602001908080601f0160208091040260200160405190810160405280939291908181526020018383808284378201915050505050509190803573ffffffffffffffffffffffffffffffffffffffff169060200190919050506106e3565b6040518082815260200191505060405180910390f35b34156101ac57600080fd5b6101b4610a32565b6040518082815260200191505060405180910390f35b34156101d557600080fd5b6101dd610a3c565b005b34156101ea57600080fd5b61023a600480803590602001908201803590602001908080601f01602080910402602001604051908101604052809392919081815260200183838082843782019150505050505091905050610b04565b604051808273ffffffffffffffffffffffffffffffffffffffff1673ffffffffffffffffffffffffffffffffffffffff16815260200191505060405180910390f35b341561028757600080fd5b61028f610b99565b005b341561029c57600080fd5b6102c8600480803573ffffffffffffffffffffffffffffffffffffffff16906020019091905050610c2c565b005b34156102d557600080fd5b6102ed60048080351515906020019091905050610cc7565b005b34156102fa57600080fd5b610326600480803573ffffffffffffffffffffffffffffffffffffffff16906020019091905050610d3b565b6040518080602001828103825283818151815260200191508051906020019080838360005b8381101561036657808201518184015260208101905061034b565b50505050905090810190601f1680156103935780820380516001836020036101000a031916815260200191505b509250505060405180910390f35b34156103ac57600080fd5b6103b4610e21565b6040518080602001828103825283818151815260200191508051906020019080838360005b838110156103f45780820151818401526020810190506103d9565b50505050905090810190601f1680156104215780820380516001836020036101000a031916815260200191505b509250505060405180910390f35b341561043a57600080fd5b6104506004808035906020019091905050611013565b604051808273ffffffffffffffffffffffffffffffffffffffff1673ffffffffffffffffffffffffffffffffffffffff16815260200191505060405180910390f35b6000600460009054906101000a900473ffffffffffffffffffffffffffffffffffffffff1673ffffffffffffffffffffffffffffffffffffffff163373ffffffffffffffffffffffffffffffffffffffff16148061053d5750600560009054906101000a900473ffffffffffffffffffffffffffffffffffffffff1673ffffffffffffffffffffffffffffffffffffffff163373ffffffffffffffffffffffffffffffffffffffff16145b156106df576002826040518082805190602001908083835b60208310151561057a5780518252602082019150602081019050602083039250610555565b6001836020036101000a038019825116818451168082178552505050505050905001915050908152602001604051809103902060009054906101000a900473ffffffffffffffffffffffffffffffffffffffff16905060206040519081016040528060008152506000808373ffffffffffffffffffffffffffffffffffffffff1673ffffffffffffffffffffffffffffffffffffffff1681526020019081526020016000209080519060200190610632929190611050565b5060006002836040518082805190602001908083835b60208310151561066d5780518252602082019150602081019050602083039250610648565b6001836020036101000a038019825116818451168082178552505050505050905001915050908152602001604051809103902060006101000a81548173ffffffffffffffffffffffffffffffffffffffff021916908373ffffffffffffffffffffffffffffffffffffffff1602179055505b5050565b60008073ffffffffffffffffffffffffffffffffffffffff166002846040518082805190602001908083835b602083101515610734578051825260208201915060208101905060208303925061070f565b6001836020036101000a038019825116818451168082178552505050505050905001915050908152602001604051809103902060009054906101000a900473ffffffffffffffffffffffffffffffffffffffff1673ffffffffffffffffffffffffffffffffffffffff161415156107cd577fffffffffffffffffffffffffffffffffffffffffffffffffffffffffffffffff9050610a2c565b60008060008473ffffffffffffffffffffffffffffffffffffffff1673ffffffffffffffffffffffffffffffffffffffff168152602001908152602001600020805460018160011615610100020316600290049050141515610851577ffffffffffffffffffffffffffffffffffffffffffffffffffffffffffffffffe9050610a2b565b60408351101515610884577ffffffffffffffffffffffffffffffffffffffffffffffffffffffffffffffffd9050610a2a565b600560149054906101000a900460ff16156108c1577ffffffffffffffffffffffffffffffffffffffffffffffffffffffffffffffffc9050610a29565b826000808473ffffffffffffffffffffffffffffffffffffffff1673ffffffffffffffffffffffffffffffffffffffff1681526020019081526020016000209080519060200190610913929190611050565b50816002846040518082805190602001908083835b60208310151561094d5780518252602082019150602081019050602083039250610928565b6001836020036101000a038019825116818451168082178552505050505050905001915050908152602001604051809103902060006101000a81548173ffffffffffffffffffffffffffffffffffffffff021916908373ffffffffffffffffffffffffffffffffffffffff1602179055508160016000600354815260200190815260200160002060006101000a81548173ffffffffffffffffffffffffffffffffffffffff021916908373ffffffffffffffffffffffffffffffffffffffff160217905550600360008154809291906001019190505550600090505b5b5b5b92915050565b6000600354905090565b600460009054906101000a900473ffffffffffffffffffffffffffffffffffffffff1673ffffffffffffffffffffffffffffffffffffffff163373ffffffffffffffffffffffffffffffffffffffff161415610b0257600460009054906101000a900473ffffffffffffffffffffffffffffffffffffffff1673ffffffffffffffffffffffffffffffffffffffff166108fc3073ffffffffffffffffffffffffffffffffffffffff16319081150290604051600060405180830381858888f19350505050505b565b60006002826040518082805190602001908083835b602083101515610b3e5780518252602082019150602081019050602083039250610b19565b6001836020036101000a038019825116818451168082178552505050505050905001915050908152602001604051809103902060009054906101000a900473ffffffffffffffffffffffffffffffffffffffff169050919050565b600460009054906101000a900473ffffffffffffffffffffffffffffffffffffffff1673ffffffffffffffffffffffffffffffffffffffff163373ffffffffffffffffffffffffffffffffffffffff161415610c2a57600460009054906101000a900473ffffffffffffffffffffffffffffffffffffffff1673ffffffffffffffffffffffffffffffffffffffff16ff5b565b600460009054906101000a900473ffffffffffffffffffffffffffffffffffffffff1673ffffffffffffffffffffffffffffffffffffffff163373ffffffffffffffffffffffffffffffffffffffff161415610cc45780600560006101000a81548173ffffffffffffffffffffffffffffffffffffffff021916908373ffffffffffffffffffffffffffffffffffffffff1602179055505b50565b600460009054906101000a900473ffffffffffffffffffffffffffffffffffffffff1673ffffffffffffffffffffffffffffffffffffffff163373ffffffffffffffffffffffffffffffffffffffff161415610d385780600560146101000a81548160ff0219169083151502179055505b50565b610d436110d0565b6000808373ffffffffffffffffffffffffffffffffffffffff1673ffffffffffffffffffffffffffffffffffffffff1681526020019081526020016000208054600181600116156101000203166002900480601f016020809104026020016040519081016040528092919081815260200182805460018160011615610100020316600290048015610e155780601f10610dea57610100808354040283529160200191610e15565b820191906000526020600020905b815481529060010190602001808311610df857829003601f168201915b50505050509050919050565b610e296110d0565b6000803373ffffffffffffffffffffffffffffffffffffffff1673ffffffffffffffffffffffffffffffffffffffff1681526020019081526020016000208054600181600116156101000203166002900480601f016020809104026020016040519081016040528092919081815260200182805460018160011615610100020316600290048015610efb5780601f10610ed057610100808354040283529160200191610efb565b820191906000526020600020905b815481529060010190602001808311610ede57829003601f168201915b5050505050905060206040519081016040528060008152506000803373ffffffffffffffffffffffffffffffffffffffff1673ffffffffffffffffffffffffffffffffffffffff1681526020019081526020016000209080519060200190610f64929190611050565b5060006002826040518082805190602001908083835b602083101515610f9f5780518252602082019150602081019050602083039250610f7a565b6001836020036101000a038019825116818451168082178552505050505050905001915050908152602001604051809103902060006101000a81548173ffffffffffffffffffffffffffffffffffffffff021916908373ffffffffffffffffffffffffffffffffffffffff16021790555090565b60006001600083815260200190815260200160002060009054906101000a900473ffffffffffffffffffffffffffffffffffffffff169050919050565b828054600181600116156101000203166002900490600052602060002090601f016020900481019282601f1061109157805160ff19168380011785556110bf565b828001600101855582156110bf579182015b828111156110be5782518255916020019190600101906110a3565b5b5090506110cc91906110e4565b5090565b602060405190810160405280600081525090565b61110691905b808211156111025760008160009055506001016110ea565b5090565b905600a165627a7a72305820bf785b789540e919afbd92e8dc649ef34f0bd375e23adba5e7b7530a7caa3e570029",
  "source": "/*\ndecentralized microblogging \nCopyright (C) 2015 Jahn Bertsch\n\nThis program is free software: you can redistribute it and/or modify\nit under the terms of the GNU General Public License as published by\nthe Free Software Foundation in version 3.\n\nThis program is distributed in the hope that it will be useful,\nbut WITHOUT ANY WARRANTY; without even the implied warranty of\nMERCHANTABILITY or FITNESS FOR A PARTICULAR PURPOSE.  See the\nGNU General Public License for more details.\n\nYou should have received a copy of the GNU General Public License\nalong with this program.  If not, see <http://www.gnu.org/licenses/>.\n*/\n\n// \"class\" TweetRegistry\ncontract TweetRegistry {\n        \n    // mappings to look up account names, account ids and addresses\n    mapping (address => string) _addressToAccountName;\n    mapping (uint => address) _accountIdToAccountAddress;\n    mapping (string => address) _accountNameToAddress;\n    \n    // might be interesting to see how many people use the system\n    uint _numberOfAccounts;\n    \n    // owner\n    address _registryAdmin;\n    \n    // allowed to administrate accounts only, not everything\n    address _accountAdmin;\n    \n    // if a newer version of this registry is available, force users to use it\n    bool _registrationDisabled;\n\n    function TweetRegistry() {\n    _registryAdmin = msg.sender;\n    _accountAdmin = msg.sender; // can be changed later\n    _numberOfAccounts = 0;\n    _registrationDisabled = false;\n    }\n\n    function register(string name, address accountAddress) returns (int result) {\n    if (_accountNameToAddress[name] != address(0)) {\n    // name already taken\n    result = -1;\n    } else if (bytes(_addressToAccountName[accountAddress]).length != 0) {\n    // account address is already registered\n    result = -2;\n    } else if (bytes(name).length >= 64) {\n    // name too long\n    result = -3;\n    } else if (_registrationDisabled){\n    // registry is disabled because a newer version is available\n    result = -4;\n    } else {\n    _addressToAccountName[accountAddress] = name;\n    _accountNameToAddress[name] = accountAddress;\n    _accountIdToAccountAddress[_numberOfAccounts] = accountAddress;\n    _numberOfAccounts++;\n    result = 0; // success\n    }\n    }\n    \n    function getNumberOfAccounts() constant returns (uint numberOfAccounts) {\n    numberOfAccounts = _numberOfAccounts;\n    }\n\n    function getAddressOfName(string name) constant returns (address addr) {\n    addr = _accountNameToAddress[name];\n    }\n\n    function getNameOfAddress(address addr) constant returns (string name) {\n    name = _addressToAccountName[addr];\n    }\n    \n    function getAddressOfId(uint id) constant returns (address addr) {\n    addr = _accountIdToAccountAddress[id];\n    }\n\n    function unregister() returns (string unregisteredAccountName) {\n    unregisteredAccountName = _addressToAccountName[msg.sender];\n    _addressToAccountName[msg.sender] = \"\";\n    _accountNameToAddress[unregisteredAccountName] = address(0);\n    // _accountIdToAccountAddress is never deleted on purpose\n    }\n    \n    function adminUnregister(string name) {\n    if (msg.sender == _registryAdmin || msg.sender == _accountAdmin) {\n    address addr = _accountNameToAddress[name];\n    _addressToAccountName[addr] = \"\";\n    _accountNameToAddress[name] = address(0);\n    // _accountIdToAccountAddress is never deleted on purpose\n    }\n    }\n    \n    function adminSetRegistrationDisabled(bool registrationDisabled) {\n    // currently, the code of the registry can not be updated once it is\n    // deployed. if a newer version of the registry is available, account\n    // registration can be disabled\n    if (msg.sender == _registryAdmin) {\n    _registrationDisabled = registrationDisabled;\n    }\n    }\n    \n    function adminSetAccountAdministrator(address accountAdmin) {\n    if (msg.sender == _registryAdmin) {\n    _accountAdmin = accountAdmin;\n    }\n    }\n    \n    function adminRetrieveDonations() {\n    if (msg.sender == _registryAdmin) {\n    _registryAdmin.send(this.balance);\n    }\n    }\n    \n    function adminDeleteRegistry() {\n    if (msg.sender == _registryAdmin) {\n    suicide(_registryAdmin); // this is a predefined function, it deletes the contract and returns all funds to the admin's address\n    }\n    }\n}",
  "sourcePath": "/home/znr/ethereum/truffle/contracts/TweetRegistry.sol",
  "compiler": {
    "name": "solc",
    "version": "0.4.18+commit.9cf6e910.Emscripten.clang"
  },
  "schemaVersion": "1.0.1",
  "updatedAt": "2017-12-20T08:53:12.683Z"
}